:020000040800F2
:10000000002000209D010008CB15000839150008CC
:10001000C915000823030008D52E000800000000C1
:100020000000000000000000000000005917000858
:100030009903000800000000571700085B1700082C
:10004000B7010008B7010008B7010008B7010008B0
:10005000B7010008B7010008B7010008B7010008A0
:10006000B7010008B7010008B7010008B701000890
:10007000B7010008B7010008B7010008B701000880
:10008000B7010008B7010008B7010008B701000870
:10009000B7010008B7010008B7010008B701000860
:1000A000B7010008B7010008B7010008B701000850
:1000B000B7010008B7010008B7010008B701000840
:1000C000B7010008B7010008B7010008B701000830
:1000D000B7010008B7010008B7010008B701000820
:1000E000B7010008B7010008B7010008B701000810
:1000F000B7010008B7010008B7010008B701000800
:10010000B7010008B7010008B7010008B7010008EF
:10011000B7010008B7010008B7010008B7010008DF
:10012000B7010008B7010008B7010008B7010008CF
:10013000B70100080000000000000000B70100083F
:10014000B7010008B7010008B7010008CD15000885
:10015000B7010008B7010008B7010008B70100089F
:10016000B7010008B7010008B7010008B70100088F
:10017000B7010008B70100080000000000000000FF
:10018000B7010008B7010008DFF80CD000F08CF8C8
:10019000004800477D2F00080020002006488047C7
:1001A00006480047FEE7FEE7FEE7FEE7FEE7FEE75C
:1001B000FEE7FEE7FEE7FEE7E91700088901000811
:1001C0002DE9F05F0546002092469B46884606468C
:1001D000814640241BE0284641464746224600F01F
:1001E00053F853465A46C01A914110D31146184647
:1001F000224600F03AF82D1A67EB01084F462246D6
:100200000120002100F031F817EB00094E41201EBB
:10021000A4F10104DFDC484631462A464346BDE8E6
:10022000F09F40EA01039B0703D009E008C9121FB1
:1002300008C0042AFAD203E011F8013B00F8013BA0
:10024000521EF9D27047D2B201E000F8012B491ECC
:10025000FBD270470022F6E710B513460A46044663
:100260001946FFF7F0FF204610BD202A04DB203A94
:1002700000FA02F1002070479140C2F1200320FAF9
:1002800003F3194390407047202A04DB203A21FAF7
:1002900002F00021704721FA02F3D040C2F120029F
:1002A0009140084319467047064C074D06E0E06848
:1002B00040F0010394E8070098471034AC42F6D3AD
:1002C000FFF766FFA0300008C030000870B58C183A
:1002D00010F8015B15F0070301D110F8013B2A115A
:1002E00006D110F8012B03E010F8016B01F8016B47
:1002F0005B1EF9D12B0705D40023521E0DD401F843
:10030000013BFAE710F8013BCB1A921C03E013F80B
:10031000015B01F8015B521EF9D5A142D8D3002040
:1003200070BDFEE7002070470020704710B5002226
:100330000649074801F05AFB0649054801F050FB01
:10034000054901200870002010BD0000140E002097
:10035000880100202C0A00206000002010B502480F
:1003600001F022FB002010BD88010020094A10B5D1
:10037000D2F89022D2F814220AB1012010BD0A4608
:100380000146044801F032FBBDE81040014801F08D
:100390008BBB0000880100207047704770B5044691
:1003A00000F0EAF80546601C02D0044800780444D6
:1003B00000F0E2F8401BA042FAD370BD64000020B8
:1003C0002DE9F84F00224FF0010803254FF00F0EE2
:1003D0000B6808FA02F42340A3426ED14E68012E46
:1003E00005D0022E03D0112E01D0122E12D1866814
:1003F0004FEA420C05FA0CF7BE43CF6807FA0CF738
:10040000374387604668A6430C79C4F300149440D0
:1004100034434460C668570005FA07FC8C6826EA36
:100420000C06BC403443C4604C68022C01D0122C32
:1004300013D1D40800EB8404A346D4F820905407C9
:100440004FEAD46A0EFA0AF629EA06090E6906FA94
:100450000AF646EA0906CBF8206006680C7926EA17
:100460000C0604F00304BC40344304604C68E40010
:1004700065D5364C266846F480462660246822F00E
:10048000030604F480440094314C3444A446D4F868
:1004900008489607370F0EFA07F6B4432D4EB042C0
:1004A00001D1002624E02C4EB04201D101261FE0EC
:1004B0002A4EB04202D102261AE040E0284EB04255
:1004C00001D1032614E0274EB04201D104260FE0EB
:1004D000254EB04201D105260AE0244EB04201D19A
:1004E000062605E0224EB04201D1072600E008268C
:1004F000BE402643CCF808681E4E34684F689C43C3
:10050000FF0300D51C4334601A4C241D26684F6835
:100510009E43BF0300D51E432660164E083634683E
:100520004F689C43FF0200D51C433460114E0C36CB
:1005300034684F689C43BF0200D51C433460521C92
:10054000102AFFF445AFBDE8F88F000044380240A0
:100550000030014000000240000402400008024058
:10056000000C02400010024000140240001802403B
:10057000001C0240003C01400148806870470000B8
:10058000640000200248816802781144816070474D
:10059000640000200B4810B5016841F4007101604F
:1005A000016841F480610160016841F4807101607B
:1005B000032000F06FF8002000F006F800F024F8A7
:1005C000002010BD003C024070B50D4D04464FF4B4
:1005D0007A712878B1FBF0F00A490968B1FBF0F0B4
:1005E00000F096FF48B9102C07D200222146501E79
:1005F00000F030F800206C6070BD012070BD00007C
:1006000064000020700000200A4808B5016841F429
:1006100080410160006800F4804000900548001FA0
:10062000016841F080510160006800F08050009046
:1006300008BD000044380240002809DB00F01F021A
:10064000012191404009800000F1E020C0F8001134
:1006500070470000F0B40E4B1B680C46C3F3022336
:10066000C3F10705042D00D90425191D072901D25E
:10067000002300E0DB1E012606FA05F1491E214099
:1006800099409E40761E16403143F0BC02F023BCD8
:100690000CED00E0064900F0070208684FF6FF0382
:1006A000184040EA0220034A1043086070470000E7
:1006B0000CED00E00000FA05704700684162002080
:1006C0007047F0B50368586A39B19C6A4FF4827676
:1006D00000EB144400204D1E0AE040EA02409862FC
:1006E0000FE006EB8007DF59401C04EB1744C0B253
:1006F000A842F6D344EA02404FF4807202EB810133
:1007000058500020F0BDD0F8040401F020BCC1EB2B
:10071000C10200EB8202D0F80404926C01F073BBBA
:10072000C1EBC10200EB8202D0F80404D2F8082227
:1007300001F0CCBBD0F8040401F00BBC70B504464A
:100740000B0601F00F00C0EBC00104EB81014FF07C
:1007500001024FF0000503D581F83D203C3103E054
:1007600081F8FD5101F5FE71087094F8BC03012871
:1007700008D084F8BC23206801F062FF84F8BC53E1
:10078000002070BD022070BD70B5044601F00F005E
:100790006268904201D9012070BD0B0601F00F0183
:1007A000C1EBC10104EB81014FF001024FF00005E4
:1007B00003D581F83D203C3103E081F8FD5101F57E
:1007C000FE718D70087094F8BC03012808D084F87D
:1007D000BC23206802F010F984F8BC53002070BDDF
:1007E000022070BD01F00F01C1EBC10100EB8100DF
:1007F000D0F8140270472DE9F04104460F0601F0CD
:100800000F00C0EBC00104EB81014FF001064FF077
:10081000000503D581F83D603C3103E081F8FD51CE
:1008200001F5FE7108708A60CB704A7802B1C88009
:10083000022B00D10D7194F8BC03012809D084F873
:10084000BC63206801F04CFE284684F8BC53BDE828
:10085000F0810220FBE770B50C4601F00F05C5EBF7
:10086000C50100EB8101C1F81032C1F80822002354
:10087000C1F8143281F8FD3181F8FC51036901F5AA
:10088000FE71012B00D10A612207027C006803D0AF
:1008900002F00AF9002070BD01F0F6FFFAE770B52A
:1008A00004460D4601F00F006168884201D901201D
:1008B00070BD29064FF000064FF0010207D5C0EBCE
:1008C000C00104EB810181F83D203C3107E0C5EB1C
:1008D000C50104EB810181F8FD6101F5FE718A70AB
:1008E000087094F8BC03012807D084F8BC23206862
:1008F00002F0AEF8280702D007E0022070BD217C8C
:1009000004F57172206802F04BF884F8BC63002093
:1009100070BD70B50C4601F00F05C5EBC50100EBCD
:1009200081010B658A6400234B65012381F83D300A
:1009300001F83C5F0369012B00D10A612207027CA8
:10094000006803D002F0B0F8002070BD01F09CFFF9
:10095000FAE700002DE9FC5F05680446284602F02E
:10096000CCF900287ED1206802F0F3F9002879D074
:10097000206802F0EEF9800704D52068416901F093
:1009800002014161206802F0E4F9010304F571708D
:100990004FF0010A4FF0080B009075D50026206833
:1009A00002F0B6F90746DFF808946BE0F80767D065
:1009B000F1B2206802F0C5F98046C00707D005EB08
:1009C0004611C1F808AB3146204600F005FE5FEA4B
:1009D000087032D52068016C00EB46100191D0F808
:1009E000081B2269012A019A0FD0F24B9A4214D1B6
:1009F000090403D54FF40041C0F8081B204600F05D
:100A0000C9FA206901280FD013E04A4505D9090425
:100A100003D54FF40041C0F8081B204600F0BAFA95
:100A200001984845EDD804E020680121009A01F0C2
:100A3000B7FF05EB4611C1F808BB5FEAC86004D5F3
:100A400005EB46111020C1F8080B5FEA88600ED54F
:100A50002069012804D120680121009A01F0A0FF3B
:100A6000202100E0A1E105EB4610C0F8081B5FEA79
:100A7000884005D505EB46104FF40051C0F8081B1F
:100A80007F08761C002F91D1206802F062F94003A4
:100A90004FF000095FD5206802F033F907460026C1
:100AA00057E0F80753D0F1B2206802F038F98046D9
:100AB000C00726D006F00F020AFA02F0D5F8342853
:100AC0008243C5F8342805EB4610C0F808A9206910
:100AD000012807D1C6EBC60004EB8000D0E9112144
:100AE00011448164F1B22046FFF711FE206901280C
:100AF00007D136B9206D20B920680121009A01F094
:100B00004FFF5FEA087003D505EB4611C1F808B93D
:100B10005FEAC86004D505EB46111020C1F808094A
:100B20005FEA486004D505EB46104021C0F808197B
:100B30005FEA887004D505EB46100221C0F8081959
:100B40005FEA086003D53146204600F0B3FD7F0818
:100B5000761C002FA5D1206802F0FBF8002811DADE
:100B6000D5F8040820F00100C5F8040894F8F4034F
:100B700001282BD0204600F0F1F92068416901F0EE
:100B800000414161206802F0E4F800050BD5D5F87A
:100B90000808C00702D0204600F024FA2068416906
:100BA00001F400614161206802F0D3F8C00461D50E
:100BB000D5F8040820F00101C5F8041810212068B8
:100BC00002F07CF800214FF67F321AE084F8F493AB
:100BD00000212046FFF770FDCFE700BF05EB411075
:100BE000C0F80829D0F8003923F40013C0F8003900
:100BF000C0F8082BD0F8003B23F40013C0F8003BEA
:100C0000491C60688842E9D8D5F81C0840F00111F9
:100C1000C5F81C18206B002828460DD0D0F8840891
:100C200040F00B00C5F88408D5F8440840F00B01EB
:100C30002846C5F844180DE0D0F8140842F22B01FC
:100C40000843C5F81408D5F8100840F00B012846F1
:100C5000C5F81018D0F8000820F4FE61C5F8001897
:100C6000217C2068009A01F09BFE2068416901F414
:100C700080514161206802F06CF8800415D520682D
:100C800001F06EFC206802F02BF8E06000F05CFAE6
:100C90000146227B206802F097F8204600F048F9D0
:100CA0002068416901F400514161206802F051F867
:100CB000C00634D52068816921F0100181612F6A56
:100CC00007F00F00C0EBC00004EB8006C7F3434001
:100CD00006F5FE76022802D0062811D01AE047F663
:100CE000F070074216D0C7F30A1217462846F1687B
:100CF00002F033F8F0683844F060B069384408E036
:100D000008222846009902F028F8B069C7F30A11B2
:100D10000844B0612168886940F01000886120684B
:100D200002F017F8000707D5204600F01BF92168EC
:100D3000486900F008004861206802F00AF8C00223
:100D400008D50021204600F037F82168486900F4F2
:100D500080104861206801F0FCFF800208D5002166
:100D6000204600F02DF82168486900F40010486121
:100D7000206801F0EEFF400007D52046FFF7C3FCD6
:100D80002068416901F080414161206801F0E1FF84
:100D900040070AD520684568680702D52046FFF756
:100DA000C9FC2068416829434160BDE8FC9F000000
:100DB0000A30544F0A31544FD0F8040401F018B9E6
:100DC000D0F8040401F016B92DE9F0418AB004000E
:100DD00005D094F8BD032668002520B108E0012065
:100DE0000AB0BDE8F08184F8BC53204600F05EF8FC
:100DF000032084F8BD03F06BC00500D42561206892
:100E000001F03CFD04F11001282288466846FFF7F6
:100E100008FA94E80F0001F0BDFB0226C8BB0021D0
:100E2000206801F0A8FF002001270EE0C0EBC00100
:100E300004EB810181F83D7001F83C0FC880CD7052
:100E40008D60CD60401CC0B24D6161688142EDD8BB
:100E5000002011E0C0EBC00104EB810181F8FD51DD
:100E600081F8FC0181F8FF51C1F80452C1F8085221
:100E7000401CC0B2C1F8105261688142EAD82822F1
:100E800041466846FFF7CDF994E80F0001F030FCC9
:100E900010B184F8BD63A2E784F8385084F8BD73BC
:100EA000206801F019FC00209AE7000010B586B018
:100EB000044614216846FFF7CDF92068B0F1A04F31
:100EC0002FD119480021026842F001020260006837
:100ED00000F0010005904FF4C05000900220CDE9D1
:100EE0000101032003900A20049069460F48FFF790
:100EF00067FA0D48001D016841F0800101600A4851
:100F00001430016841F4804101600068002200F45F
:100F10008040059011464320FFF79CFB4320FFF7DC
:100F20008BFB06B010BD00003038024000000240CC
:100F300070B50446C068012570B1022801D0FFF7E2
:100F40002CFA2946D4F8040401F0A5F8D4F80404D6
:100F5000BDE8704001F065B80025F2E7D0F8040460
:100F600001F087B8D0F8040401F089B810B5044640
:100F700090F8BC0301280BD0012084F8BC0384F84E
:100F80003810206801F00EFF002084F8BC0310BD6B
:100F9000022010BDD0F8042400F57171104601F054
:100FA00086B810B50446006894F8BC13012906D031
:100FB000012184F8BC13A16A012902D008E00220B3
:100FC00010BDA169012903D0816B41F48031816397
:100FD000206801F075FB206801F05AFE002084F8BB
:100FE000BC0310BD10B50446D0F8040401F09EF80F
:100FF0002068D0F8001E41F00101C0F8001E206AF0
:10100000002804D00248016841F00601016010BDCB
:1010100010ED00E02DE9F0470E46050065D0DFF841
:101020001481D8F80000F7B200F00F00B04207D2E8
:1010300088F80070D8F8000000F00F00B04254D1DA
:1010400028683D4C810712D5400703D5206840F43D
:10105000E05020602878000703D5206840F4604005
:1010600020602068A96820F0F000084320602878FC
:10107000C0072DD0304968680839012812D00228ED
:1010800013D0032811D00968890700292DDA2168B7
:1010900021F0030101432160FFF76EFA814641F21E
:1010A000883A0EE009688903EFE709688901ECE7EF
:1010B000FFF762FAA0EB0901514502D90320BDE810
:1010C000F0872068696800F00C00B0EB810FEFD169
:1010D000D8F80010404601F00F01B14207D907705F
:1010E000006800F00F00B04201D00120E7E7287847
:1010F000400705D52068E96820F4E05008432060E7
:101100002878000706D52068296920F4604040EA65
:10111000C100206000F01EF82168084AC1F30311E5
:10112000515CC8400649086006480068FFF74CFA61
:101130000020C4E7003C024008380240903000081C
:10114000700000206800002001480068704700001F
:1011500070000020154810B5006810F00C0214480B
:1011600013D04110042A0FD0082A0ED10F4C241F8F
:101170002268236802F03F025B0207D52068C0F3B3
:101180008810A0FB010106E0084610BD2168C1F3EC
:101190008811A1FB00010023FFF712F82168C1F3B9
:1011A0000141491C4900B0FBF1F010BD0838024074
:1011B0000024F4002DE9F84F040076D02078DFF801
:1011C00038A3CE4DC00749D0DAF800105046C1F31D
:1011D0008101012908D00068C0F3810002280AD1EA
:1011E000281D0068400206D52868800336D560684F
:1011F0000028E2D032E06068B0F5803F10D0B0F552
:10120000A02F286810D020F480302860286820F4AF
:10121000802028606068A0B1FFF7AEF906460CE0B8
:10122000286840F48030F4E740F480202860F7E735
:10123000FFF7A2F9801B642873D828688003F7D5CC
:101240000CE0FFF799F9064605E000BFFFF794F9B7
:10125000801B6428F0D828688003F7D42078DFF852
:10126000A08280074FF000093ED5DAF80010504602
:1012700011F00C0F09D00068C0F3810002280BD1D7
:101280009D48001F0068400206D42868800715D5D5
:10129000E068012809D111E0E068B8B10120C8F880
:1012A0000000FFF769F9064605E020E1FFF764F961
:1012B000801B0228C0D828688007F7D528682169D4
:1012C00020F0F80040EAC10028600DE0C8F8009066
:1012D000FFF752F9064604E0FFF74EF9801B02289B
:1012E0001FD828688007F7D42078000722D5824EBF
:1012F000844861696C3671B101210160FFF73CF9E6
:10130000074604E0FFF738F9C01B022809D8306807
:101310008007F7D50EE0C0F80090FFF72DF90746DB
:1013200005E082E0FFF728F9C01B02287DD830686D
:101330008007F7D42078400768D5DFF8BCB10027D4
:101340000BF1380BDBF80000C0000BD4DBF8001009
:1013500041F08051CBF80010DBF80000012700F0CD
:1013600080500090684E3068C00510D4306840F45A
:1013700080703060FFF700F9009005E0FFF7FCF89F
:101380000099401A022850D83068C005F6D55A4E48
:10139000A068683601280FD00528306810D020F0EA
:1013A00001003060306820F004003060A068B8B1FF
:1013B000FFF7E2F800900FE0306840F00100F4E73A
:1013C00040F004003060F7E7FFF7D6F80099411AC3
:1013D00041F28830814266D830688007F4D50EE04B
:1013E000FFF7CAF8009007E0FFF7C6F80099411A26
:1013F00041F28830814256D830688007F4D42FB14A
:10140000DBF8001021F08051CBF80010A069D0B3B8
:10141000DAF800205146C2F38102022A4AD002289B
:10142000484607D0C8F8600000E03CE0FFF7A4F8A9
:1014300004463BE04746C8F86000FFF79DF80646C3
:1014400005E000BFFFF798F8801B02282BD828681A
:101450008001F7D4D4E907010843A16A2B4A49085F
:1014600002EB0141626A41EA8211084394F82C10B0
:1014700040EA01612048001F016001203866FFF743
:101480007BF8044605E034E0FFF776F8001B0228FD
:1014900009D828688001F7D52BE000BFFFF76CF86A
:1014A000001B022802D90320BDE8F88F28688001BC
:1014B000F4D41EE00128F7D00868E26900F4800146
:1014C000914214D1226A00F03F0191420FD147F6B8
:1014D000C071626A0140914209D1A26A00F44031B0
:1014E000914204D1E16A00F07060884201D001208D
:1014F000DAE70020D8E70000083802400038024050
:1015000000004742800E4742007000400000FFFF8D
:1015100010B5401EB0F1807F01D3012010BD4FF007
:10152000E02460610F21601701F0D5FC0020A0616C
:1015300007202061002010BDFEE70000F0B5002369
:101540000A24302537261F4611E000BFB4EB107F78
:1015500002D905EB107C01E006EB107C01F813C00A
:1015600001EB430C00015B1C8CF80170DBB2934271
:10157000ECD3F0BD10B500220F49104800F01CFC60
:1015800008B1FEF70AFF0E490C4800F0F5FD08B15E
:10159000FEF703FF0B49094800F01AFA08B1FEF7FD
:1015A000FCFE064800F03EFE002803D0BDE81040D7
:1015B000FEF7F3BE10BD00000000002088010020EF
:1015C0005001002050000020FEE770470148FFF75F
:1015D000C1B90000240400202DE9F0410446006850
:1015E0000E46016C00EB4615D5F8080B2769202341
:1015F0004FF40042012F08D02C4FB9424FD10104C3
:1016000049D500BFC5F8082B4DE0DFF8A4C05FEA5C
:10161000007E04F5717711D5614503D9000401D529
:10162000C5F8082B2046FFF7B5FC3A460121206893
:1016300001F0B6F90820C5F8080B34E05FEA806EC7
:1016400002D5C5F8083B2EE010F0280F2BD16145DC
:1016500001D90004D6D4C6EBC60004EB8000D5F84F
:10166000102BD0F80412C2F312028A1AC0F8142206
:10167000D0F808221144C0F80812F1B22046FFF752
:101680004FF886B9D4F8100268B93A4601212068AB
:1016900001F086F907E0800601D5C5F8083BF1B2F4
:1016A0002046FFF73DF80020BDE8F0810A31544F95
:1016B0000A30544F2DE9F84F0E46C1EBC60100EB3E
:1016C000810481460568D4E914103C34884202D96B
:1016D0000120BDE8F88F081AA168814200D20846AF
:1016E000C01C870805EB46181BE000BFA0EB010AF1
:1016F000A068504500D282460AF10300870899F895
:10170000100000901FFA8AF3F2B22846E16801F057
:10171000CFFBE16801EB0A00E060A16901EB0A0080
:10172000A061D8F8180980B2B84205D3D4E9050100
:10173000814201D20028D9D1D4E90501884208D8D4
:1017400006F00F0101208840D5F834188143C5F810
:1017500034180020BDE770477047FEF713BF000044
:1017600010B592B030216846FEF774FD14210CA824
:10177000FEF770FD1A480024016841F080510160B5
:10178000006800F0805011901648016841F48041D3
:10179000016000684FF4803100F480401190032014
:1017A000CDE90001012103911021049102214A0594
:1017B000CDE906120422CDE90A10089248220992C6
:1017C0006846FFF7F7FC0F20CDE90C040E940F9448
:1017D00000210CA81094FFF71DFC12B010BD0000F2
:1017E00040380240007000400548016841F4700133
:1017F000016003494FF000608039086070470000C5
:1018000088ED00E02DE9F041D0F89832D0F8902230
:10181000DAB101EB810400EB84040025E6694EB1E6
:10182000C1EBC10703EB87035B6CB6FBF3F703FB6C
:10183000176323B1C2F814520020BDE8F0810023E1
:101840001A46E56100F07BFCF6E70220F5E770B58B
:101850000546D0F8904200F087FBC4F80C02D5F89A
:10186000900248B1D5F89412D4F80402CA6804F57D
:1018700003719047002070BD022070BD70B5044612
:101880000026812100F0B6FA002501212046E562FC
:1018900000F0B0FA82212046C4F8585100F0AAFAAC
:1018A0002564D4F8900248B1D4F8940204F5247465
:1018B00040688047206801F05DFB2560304670BDC0
:1018C00010B5D0E9A44159B194F80002FF2807D01F
:1018D0008B6894F8012221469847FF2084F8000283
:1018E000002010BD0A2101800048704778000020C8
:1018F0004321018000487047C80000204321018037
:101900000048704784000020432101800048704750
:101910000C0100202DE9F04104460026007C4FF424
:101920000077012590B3402302228121204600F058
:1019300063FB4023E56202220121204600F05CFBAC
:101940000823032282212046C4F8585100F054FB9A
:101950004FF40770256401F00FFBC4F89002F8B152
:101960000546D4F89402006880470020C5F81402A8
:10197000C5F81802207CD5F8042298B14023012133
:10198000204600F045FB3046BDE8F081FFE73B46CE
:1019900002228121204600F02FFB3B46E562CAE788
:1019A0000126F0E73B46EAE710B5D0F8901269B19E
:1019B000027C002AD1F8042205D04023012100F046
:1019C00027FB002010BD4FF40073F7E7022010BD85
:1019D00002460220002902D00020C2F8941270476B
:1019E000D0F89002C0F8041200207047D0F890029E
:1019F000C0F81022C0F80812002070472DE9FC4101
:101A00000546D0F8907200208DF80000ADF8040073
:101A1000064608780C4610F0600121D020293BD101
:101A2000E288AAB10006607807D5D5F894128B68D1
:101A300039469847E288394626E087F80002A079BF
:101A400087F80102E2883946284600F06AF828E063
:101A5000D5F89412607800228B682146984720E0E0
:101A6000607820B10A2809D00B2815D110E095F82C
:101A70007402032810D1022201A905E095F874022E
:101A8000032809D101226946284600F064F808E0DD
:101A900095F87402032804D02146284600F036F851
:101AA00002263046BDE8FC8110B5D0F89012A1B1F5
:101AB000D1F814220AB1012010BD0122C1F814226C
:101AC000D1F810220263B1F8102293B2D1F80822A3
:101AD000812100F034FB002010BD022010BD10B5A4
:101AE000D0F88C2252689047002010BD134610B5E4
:101AF0000A46002100F08CFA002010BD134610B5F4
:101B00000A46002100F01BFB002010BD10B5044662
:101B1000802100F0F9FA2046BDE81040002100F0D5
:101B2000F3BA10B50323C0F84821C0F86C32C0F8EE
:101B30004C2113460A46002100F06AFA002010BD2D
:101B400010B505210023C0F86C121A46194600F0A2
:101B50005FFA002010BD10B50223C261C0F86C32DC
:101B6000026213460A46002100F0E9FA002010BD87
:101B700010B504210023C0F86C121A46194600F073
:101B8000DEFA002010BD000010B50A46024903A08D
:101B900000F0E2F8004810BD2C0800204344432028
:101BA000436F6E6669670000122008800048704726
:101BB0002000002010B50A46024903A000F0CCF82E
:101BC000004810BD2C08002043444320496E746532
:101BD0007266616365000000042008800048704759
:101BE0001C00002010B50A46024903A000F0B4F81A
:101BF000004810BD2C08002053544D6963726F6576
:101C00006C656374726F6E696373000010B50A4689
:101C1000024903A000F0A0F8004810BD2C080020E5
:101C200053544D3332205669727475616C20436F82
:101C30006D506F727400000010B51A2008800A48B9
:101C40000168001D0468001D0068081809D00822FA
:101C50000649FFF773FC0549042210312046FFF7BF
:101C60006DFC0248801E10BD107AFF1F3600002058
:101C7000F8B5044648880D46010A08294BD2DFE82A
:101C800001F04A0409174A4A4048D4F88812207CD7
:101C90000A6832E0207C02260028D4F88C0205D0A5
:101CA000C16A684688470146467041E0816AF8E7A4
:101CB000C0B206282FD2DFE800F003080D12171C6F
:101CC000D4F88812207C4A6817E0D4F88812207C67
:101CD0008A6812E0D4F88812207CCA680DE0D4F833
:101CE0008812207C0A6908E0D4F88812207C4A69AE
:101CF00003E0D4F88812207C8A696946904701463F
:101D000016E0207C38B9D4F88C02416B68468847CD
:101D1000F5E7207C20B129462046FFF7F7FEF8BD05
:101D2000D4F88C02016B684688470146072048704A
:101D3000BDF8000048B1EA8852B1824200D902469B
:101D4000ADF800202046FFF706FFE8880028E6D11E
:101D50002046FFF70DFFF8BD70B5002300281ED008
:101D60000446002502E06D1CEDB2641C2678002EAE
:101D7000F9D1022404EB450414801278CA545B1C88
:101D80000322CA5400245B1C06E0CA545B1CDAB26E
:101D90008C54521CD3B2401C0278002AF5D170BD7D
:101DA00001004FF0000004D0012901D0022901D028
:101DB000022070470120704710B580B1D0F88C32F6
:101DC00013B10023C0F88C3209B1C0F88812012188
:101DD00080F87412027000F0CBF8002010BD0220D1
:101DE00010BD10B5D0F89802FEF7CEFCBDE810404B
:101DF000FFF7D6BF10B5D0F89802FEF79FFCBDE8FC
:101E00001040FFF7CDBF2DE9F0411746044651B110
:101E1000D4F88C0242691AB194F87402032851D0A4
:101E20000220BDE8F081D4F86C32002504F11400E2
:101E3000022B03D0042B3AD0C3B33CE0D0E90363B8
:101E40009E4207D9F11AC1608AB239462046FFF78F
:101E500055FE12E08068B0FBF3F103FB110199B964
:101E6000984211D3D4F8701288420DD20022114644
:101E70002046FFF743FEC4F8705200231A46194665
:101E8000204600F0C5F816E0D4F88C02C16829B1EC
:101E900094F87402032801D1204688478021204607
:101EA00000F032F92046FFF74BFE04E0FFE7802107
:101EB000204600F029F994F87802012804D184F82A
:101EC000785201E0204690470020AAE770B51546F9
:101ED000044649B1D4F88C0282691AB194F87402AC
:101EE000032830D0022070BDD4F86C1204F5A07025
:101EF000032902D005291ED027E0D0E903218A4218
:101F00000BD9531AC3600846834200D303469AB2E2
:101F100029462046FFF7EAFD17E0D4F88C02016954
:101F200029B194F87402032801D12046884720463D
:101F3000FFF71EFE09E000200146C4F86C022046AF
:101F400000F0E2F801E020469047002070BD00203C
:101F5000704710B5012180F87412D0F88C220179F5
:101F600052689047002010BDD0F89802FEF73ABCA6
:101F700010B5017839BB15490222C1F80404C0F834
:101F800098124FF0A0400860042048600020C1E98A
:101F90000320C1E9062008624862C8620863084657
:101FA000FEF712FF08B1FEF7F8F980210748FEF7A7
:101FB00084FB402200210548FEF783FB802201219B
:101FC0000248FEF77EFB002010BD00002404002024
:101FD0000A0601F07F01D0F89802C1EBC10100EBC5
:101FE000810002D590F83E00704790F8FE017047DE
:101FF000002070470020704710B51C461346D0F8EB
:1020000098022246FEF7F7FBBDE81040FFF7C8BE76
:1020100010B5D0F89802FEF71EFCBDE81040FFF79F
:10202000BFBE70B50022044640231146FFF7E4FF0F
:1020300040260125C4F85061334600228021204605
:10204000C4F84451FFF7D8FF6662A56184F8745262
:102050000020C4F86C026060C4F87C02D4F89002DE
:1020600028B1D4F88C020021426820469047002015
:1020700070BD90F8751280F874120020704710B58A
:1020800090F87412032904D1D0F88C12C96901B1F7
:102090008847002010BD01740020704710B5D0F8AB
:1020A0009802FEF763FFBDE81040FFF779BE70B5F8
:1020B000044600F52070054600F04AF80120C4F8F7
:1020C0006C02B4F88602C4F8700294F8800210F032
:1020D0001F010AD001290DD0022910D000F0800183
:1020E000204600F011F8002070BD2946204600F07F
:1020F0009EF8F8E72946204600F0CAF9F3E729469A
:10210000204600F01DF9EEE710B5D0F89802FEF772
:10211000C6FBBDE81040FFF743BE10B5D0F89802EB
:10212000FEF73FFFBDE81040FFF73ABE90F874128B
:1021300080F87512042180F874120020704710B5E1
:10214000D0F89802FEF7E5FBBDE81040FFF728BE87
:102150000A7802704A7842708A78CB7802EB0322C0
:1021600042800A794B7902EB032282808A79C9790D
:1021700002EB0121C18070470246002011B1C2F874
:102180008C1270470220704710B5D0F88C220224C0
:102190001AB11268904700B90024204610BD000013
:1021A00070B50E461E4D897804462970012931D834
:1021B00094F8740202280BD003280FD03146204631
:1021C000FFF7A4FC29782046BDE87040FFF787BCE4
:1021D000D9B10320616084F8740209E071B16068CC
:1021E000884212D0C1B22046FFF779FC297861609D
:1021F0002046FFF7C9FF02280CD006E0022084F831
:10220000740220466160FFF76AFC2046BDE870401A
:10221000FFF7AEBC31462046BDE87040FFF776BC04
:102220007400002010B5FFF778FF002010BD2DE9E5
:10223000F0410A78002612F0600208D0202A01D06E
:10224000402A70D1D0F88C22926890476DE04B788C
:10225000002201250A2B66D2DFE803F0405D6557B6
:10226000650805652C29FFF703FD5EE004468888B4
:10227000D8B9C888C8B94888802816D200F07F0726
:1022800094F87402032810D084F8767239462046F8
:10229000FFF704FF2046FFF76BFC1FB1022084F814
:1022A000740242E084F874523FE020463BE0FFF7BE
:1022B00077FF3AE0CB88012B35D190F87432012BAF
:1022C00004D0022B02D0032B2DD104E08260012226
:1022D00000F1080116E00122011D13E090F87422BC
:1022E000012A03D0022A01D0032A1CD1CA88022A5B
:1022F00019D1C560D0F87C1209B10321C160022256
:1023000000F10C01FFF727FC0FE0498801290CD1EF
:10231000C0F87C5211E090F87432012B08D0022BE7
:1023200006D0032B04D0FFF7F1FB3046BDE8F08167
:1023300049880129F9D1C0F87C22FFF719FCF4E79C
:102340002DE9F0410A46044610780027097910F07B
:1023500060030AD0202B01D0402B50D1D4F88C023E
:1023600011468368204698478FE0C0F3411001284A
:1023700006D05078D0B301282AD003283FD107E0F7
:10238000D4F88C02114683682046BDE8F041184716
:1023900094F87402022802D0032872D10AE071B3C3
:1023A00080296ED02046FFF7AFFE80212046FFF740
:1023B000ABFE6AE0508838B931B1802904D0D088AA
:1023C00010B92046FFF7A0FE2046FFF7D1FB5CE0E6
:1023D00094F874020228E2D0032852D1508898BBA6
:1023E0004806F1D02046FFF7FCFCEDE7FFE794F844
:1023F00074020026022803D0032842D112E040E0F4
:1024000009B180293DD1080601F07F0000EB800072
:1024100004EB800101D5143101E001F5A071022225
:102420000E602AE0080601F00F0000EB800004EBCC
:1024300080000AD5806920B301F07F0000EB8000A6
:1024400004EB800514350BE01FE0D0F84401C0B167
:1024500001F07F0000EB800004EB800505F5A0751E
:1024600041B1802906D02046FFF7B2FD10B101200E
:10247000286000E02E60022229462046FFF76BFB11
:1024800003E011462046FFF741FB3846BDE8F081E6
:1024900070B5054608780C4610F0600003D020287F
:1024A00001D0402816D195F87402012803D00228E3
:1024B00001D003280ED1207901280BD8D5F88C0241
:1024C000826828469047E188014306D12846FFF7F5
:1024D0004FFB02E02846FFF719FB002070BD00000B
:1024E00070B50A78012302F00F054E78AB401B4C03
:1024F000D0F81C58012E17D045EA0343C0F81C3809
:1025000000EB4210D0F8002B12040BD4D0F8002BB3
:102510000B89C978C3F30A031A4344EA81410A4389
:10252000C0F8002B002070BD9BB21D43C0F81C58A2
:1025300000EB4210D0F800391B04F3D4D0F8003976
:102540000D89C978C5F30A0589042B4341EA8251F4
:102550000B432343C0F80039E4E70000008000107B
:10256000D0F800196FF30A01C0F80019D0F8081864
:10257000C1F34101022905D1D0F8001941F003014E
:10258000C0F80019D0F8041841F48071C0F804189C
:102590000020704770B5044606990A9E049D0D9868
:1025A000012916D0E06840F04000E060204600F0CD
:1025B0002BF8A16B1EB321F48031A163012D07D14B
:1025C000A16841F00601A160A16841F02001A1606D
:1025D00070BDA16B21F48031A163E168094A11400B
:1025E000E160E16821F44011E160012803D1E06875
:1025F00040F48010E060204600F006F8DEE741F489
:102600008031DAE7BFFFBDFF01220C4902E0521C16
:102610008A420BD80369002BF9DA026942F0010201
:102620000261012204E0521C8A4201D90320704752
:102630000369DB07F7D1002070470000400D03005D
:1026400030B50B784D78012203F00F0402FA04F440
:10265000012DD0F83C5817D025EA0444C0F83C4876
:10266000D0F81C48097801F00F018A4024EA0241A1
:10267000C0F81C1800EB4310D0F8001B0E4A1140A4
:10268000C0F8001B002030BDA4B2A543C0F83C58E0
:10269000D0F81C48097801F00F018A4091B28C43B0
:1026A000C0F81C4800EB4310D0F80019034A114051
:1026B000C0F80019E6E700000078F3EF007833EC8B
:1026C00010B5D0F8041821F00201C0F80418032056
:1026D000FDF764FE002010BD10B5D0F8041841F0DD
:1026E0000201C0F804180320FDF758FE002010BDB9
:1026F0002DE9F04F0025DDE90BCB0E460446DDF851
:102700004090099F2846294604EB8002C2F8041134
:10271000401C0F28F8D3B9F1000F204618D00068EC
:1027200020F400122260A06B40F40022A26308464D
:102730008846C4F8000ED4F800182046C4F80018E3
:10274000BCF1010F10D0D0F8001841F0030110E0E7
:10275000806B40F40012A263A06B20F40022A263FD
:10276000A06B20F48022E1E7D0F800180BB141F013
:102770000101C0F80018102100F0A0FA00B10125F5
:10278000204600F08BFA00B101254046C4F81088BD
:10279000C4F81488C4F81C8800214FF000634FF07F
:1027A00090484FF67F3A14E004EB4112D2F800C98A
:1027B000BCF1000F06DA11B1C2F8008904E0C4F8D8
:1027C000003901E0C2F80009C2F81009C2F808A9EE
:1027D000491C8E42E8D8002115E000BF04EB4112ED
:1027E000D2F800CBBCF1000F06DA11B1C2F8008BB1
:1027F00004E0C4F8003B01E0C2F8000BC2F8100B83
:10280000C2F808AB491C8E42E8D8D4F8101821F45D
:1028100080722146C4F81028012F08D1134AC1F84C
:102820003028D1F83018124A1143C4F83018A0618A
:102830006FF0804060611FB9A06940F01000A06196
:10284000A0690C490843A061BBF1000F03D0A06947
:1028500040F00800A061B9F1010F03D1A069064959
:102860000843A0612846BDE8F08F00000001800009
:102870000300010000383C8004000040816821F022
:10288000010181600020704770B50D784E78434C8F
:10289000EBB200EB4313012E1FD0D3F8100B6FF3F4
:1028A0001200C3F8100BD3F8100B2040C3F8100B24
:1028B000486908B188684861D3F8100B40F40020DB
:1028C000C3F8100BD3F8100B8C68C4F31204204328
:1028D000C3F8100B012A55D058E04E69002ED3F8EA
:1028E000106932D06FF31206C3F81069D3F810697B
:1028F0002640C3F810694E698C68A64200D94C6125
:10290000D3F8104944F40024C3F81049D3F810490F
:102910004E69C6F312063443C3F81049012A22D087
:1029200000EB4512D2F8003943F00443C2F80039F5
:102930004A6932B3D0F83428097801F00F03012135
:1029400099400A43C0F8342826E02640C3F81069AD
:10295000D3F8104944F40024C3F81049D3F81049BF
:102960006FF31204D8E7096919B100EB4512C2F8F8
:10297000141900EB4510D0F8001941F00441C0F8DB
:10298000001909E0C86808B1C3F8140BD3F8000BAC
:1029900040F00440C3F8000B002070BDFFFF07E0CB
:1029A00010B5036C134CA34203D9D0F8003B002BA5
:1029B0001EDB0023C0F8103BD0F8103B43F400238B
:1029C000C0F8103BD0F8103B43F01803C0F8103BA0
:1029D000D0F8103B43F0C043C0F8103B012907D1A9
:1029E000C0F8142BD0F8001B41F08021C0F8001B68
:1029F000002010BD0A30544F4A780B78012A00EBB2
:102A000043100BD0D0F8002B22F40012C0F8002B9A
:102A1000C978032914D0022912D017E0D0F8002970
:102A200022F40012C0F80029C978032901D0022934
:102A30000CD1D0F8001941F08051C0F8001905E020
:102A4000D0F8001B41F08051C0F8001B00207047F7
:102A50000A784B78D1B200EB4110012B12D0D0F89C
:102A6000001B002906DB2AB1D0F8001B21F08041B1
:102A7000C0F8001BD0F8001B41F40011C0F8001B87
:102A800000207047D0F80019002906DB2AB1D0F8E1
:102A9000001921F08041C0F80019D0F8001941F464
:102AA0000011C0F80019EBE7F8B50C784F78774DB6
:102AB000E3B26FF0604600EB4313012F26D0D3F84A
:102AC000104B6FF31204C3F8104BD3F8104B2C408B
:102AD000C3F8104B4C69002C74D08D682C44641ED4
:102AE000B4FBF5F4D3F8105BA4B206EAC446354350
:102AF000C3F8105BD3F8105B8E686643C6F312040C
:102B00002543C3F8105B012A71D0A6E04F691FB3BB
:102B1000D3F810796FF31207C3F81079D3F810794E
:102B20002F40C3F810794F698D682F447F1EB7FB83
:102B3000F5F506EAC545D3F810693543C3F81059D1
:102B4000D3F810594E69C6F312063543C3F810592D
:102B5000CD78012D10D01BE0D3F810692E40C3F8BA
:102B60001069D3F8105945F40025C3F81059D3F86B
:102B700010596FF3120509E0D3F8105925F0C0453C
:102B8000C3F81059D3F8105945F00055C3F810593F
:102B9000012A18D000EB4413D3F8004944F0044450
:102BA000C3F80049CC78012C2FD04A6962B3D0F821
:102BB0003428097801F00F03012199400A43C0F835
:102BC000342860E036E00A691AB100EB4413C3F818
:102BD0001429C97801290FD1D0F80818C90500EBCC
:102BE0004411D1F8002903D442F0005202E030E051
:102BF00042F08052C1F8002900EB4410D0F80019CF
:102C000041F00441C0F800193DE0D0F80848E4055F
:102C1000D3F8004902D444F0005401E044F0805459
:102C2000C3F8004900928A8A93B20A78C96800F012
:102C30003FF928E0D3F8104B8D68C5F312052C43FB
:102C4000C3F8104BD3F8104B44F40024C3F8104BD6
:102C500059E7CA680AB1C3F8142BC97801290CD105
:102C6000D0F80808C005D3F8000B02D440F000509B
:102C700001E040F08050C3F8000BD3F8000B40F0A7
:102C80000440C3F8000B0020F8BD0000FFFF07E080
:102C9000816841F00101816000207047002110220D
:102CA0000261054A491C914201D90320704703691A
:102CB000DB06F7D400207047400D030000222023DC
:102CC00043EA811101610549521C8A4201D903205E
:102CD000704703699B06F7D400207047400D03003E
:102CE000D0F8080810F0060004D0022803D0062807
:102CF00001D00F20704702207047406900F00100AA
:102D00007047D0F81818D0F81C08084080B27047F7
:102D1000D0F81818D0F81C080840000C704710B5FF
:102D2000D0F81038D0F8342801F00F0400EB41102F
:102D3000E24002F00102D0F8080943EAC212104052
:102D400010BD00EB4111D1F8081BD0F81408084061
:102D500070474169806908407047D21C10B59308DC
:102D6000002200F5805002E00468521C10C19A4213
:102D7000FAD3084610BD10B5C26822F0C042C26046
:102D8000012902D029B1012010BDC16841F00051D4
:102D900002E0C16841F08041C1603220FDF7FEFAD7
:102DA000002010BDD0F8002822F4FE62C0F80028F0
:102DB000D0F800284FF4FE6303EA01110A43C0F87B
:102DC0000028002070470000022A3ED1264A274BE7
:102DD0000A449A4201D20F2138E0254A254B0A4481
:102DE0009A4201D20E2131E0234A244B0A449A42EE
:102DF00001D20D212AE0224A224B0A449A4201D2F2
:102E00000C2123E0204A214B0A449A4201D20B2193
:102E10001CE01F4A1F4B0A449A4201D20A2115E0C6
:102E20001D4A1E4B0A449A420FD31D4A1D4B0A44A9
:102E30009A4201D2082109E01B4A11441B4A9142DF
:102E400001D2072102E0062100E00921C26822F434
:102E50007052C260C2684FF4705303EA81210A4382
:102E6000C260002070470000405327FF00350C006F
:102E7000401E1BFF40420F0000DC0BFF804F120082
:102E8000808CF9FE20D6130060B6E5FE60E31600E4
:102E900000D3CEFE40771B00C05BB3FEC091210083
:102EA00000CA91FE20753800E05459FEE09C4100B4
:102EB00010B5029C64B9DB1C9C0800EB02300023B7
:102EC00000F5805002E004C902605B1CA342FAD303
:102ED000002010BDFEE70907090E002804DB00F101
:102EE000E02080F80014704700F00F0000F1E020AF
:102EF00080F8141D704702E008C8121F08C1002A9C
:102F0000FAD170477047002001E001C1121F002A6A
:102F1000FBD1704710B5002812D0144991F9001068
:102F200000290DDB12490A461368834205D1107B44
:102F3000002805D00023137303E052688A42F3D1BE
:102F400010BD084642688A42FAD0047B0CB9147B53
:102F50000CB11046F6E71468046054684460846855
:102F6000926822440D3282600373EAE76100002018
:102F7000EF190020FFF7CEBF00F02CB892B0FDF79C
:102F800009FBFEF7EDFB1248016841F0800101608A
:102F9000016801F080011091016841F001010160B8
:102FA000016801F001011091016841F00201016026
:102FB000006800F002001090FEF7DCFA402168463D
:102FC000FDF748F940216846FDF7D0F9FAE700001F
:102FD0003038024070B505004FF0FF364FF0000466
:102FE00035D01C4890F90000002801DA00F036F8CE
:102FF00019480246017B31B98168A94203D3B14225
:1030000001D204460E4640689042F3D1FCB1A1685B
:10301000012205F10D00A94204D3814202D8227396
:10302000206870BD814212D9216848190160616829
:1030300041608560027300F10D0121606060A1684C
:10304000491B0D39A16000212173006870BD00206B
:1030500070BD000061000020EF19002010B54FF492
:1030600000610948FDF7F6F807480146C0F8F31774
:1030700000F2F37040F2F37140608160002101734F
:1030800002490120087010BDFC11002061000020E1
:103090000000000000000000010203040607080908
:1030A000C03000080000002088010000CC020008A9
:1030B0008431000888010020781E0000062F0008D7
:1030C00013A91B1B08D9041AE504130D1C1B08398E
:1030D000041A890C1AB50417040309041201140216
:1030E000020216408304B908260201020301031AF2
:1030F0001A03132D031B0829041A25041A5D041151
:1031000022FF19331182105324F4130A0632022AC3
:10311000401C1C0902435B111DC03209042D1A0218
:103120000B130524161001052401100901042402C3
:1031300002052406170107058203081C10090491E3
:10314000320A1D07050102432C070581070938448F
:103150002A40072A8107112B0907440A3B0444131C
:10316000151914087D181B08FD08411AC10C1A0511
:10317000041A4F04C11AFD101AF1041A09281AE59D
:043180000800000043
:040000050800018965
:00000001FF
